{
  "contractName": "AlexCoin",
  "abi": [
    {
      "inputs": [],
      "stateMutability": "nonpayable",
      "type": "constructor"
    },
    {
      "anonymous": false,
      "inputs": [
        {
          "indexed": true,
          "internalType": "address",
          "name": "_from",
          "type": "address"
        },
        {
          "indexed": true,
          "internalType": "address",
          "name": "_to",
          "type": "address"
        },
        {
          "indexed": false,
          "internalType": "uint256",
          "name": "_value",
          "type": "uint256"
        }
      ],
      "name": "Transfer",
      "type": "event"
    },
    {
      "inputs": [
        {
          "internalType": "address",
          "name": "",
          "type": "address"
        }
      ],
      "name": "balanceOf",
      "outputs": [
        {
          "internalType": "uint256",
          "name": "",
          "type": "uint256"
        }
      ],
      "stateMutability": "view",
      "type": "function",
      "constant": true
    },
    {
      "inputs": [],
      "name": "name",
      "outputs": [
        {
          "internalType": "string",
          "name": "",
          "type": "string"
        }
      ],
      "stateMutability": "view",
      "type": "function",
      "constant": true
    },
    {
      "inputs": [],
      "name": "standard",
      "outputs": [
        {
          "internalType": "string",
          "name": "",
          "type": "string"
        }
      ],
      "stateMutability": "view",
      "type": "function",
      "constant": true
    },
    {
      "inputs": [],
      "name": "symbol",
      "outputs": [
        {
          "internalType": "string",
          "name": "",
          "type": "string"
        }
      ],
      "stateMutability": "view",
      "type": "function",
      "constant": true
    },
    {
      "inputs": [],
      "name": "totalSupply",
      "outputs": [
        {
          "internalType": "uint256",
          "name": "",
          "type": "uint256"
        }
      ],
      "stateMutability": "view",
      "type": "function",
      "constant": true
    },
    {
      "inputs": [
        {
          "internalType": "address",
          "name": "_to",
          "type": "address"
        },
        {
          "internalType": "uint256",
          "name": "_value",
          "type": "uint256"
        }
      ],
      "name": "transfer",
      "outputs": [
        {
          "internalType": "bool",
          "name": "success",
          "type": "bool"
        }
      ],
      "stateMutability": "nonpayable",
      "type": "function"
    }
  ],
  "bytecode": "0x60806040523480156200001157600080fd5b50641405ffdc006000819055506040518060400160405280600881526020017f416c6578436f696e00000000000000000000000000000000000000000000000081525060019081620000649190620003b9565b506040518060400160405280600481526020017f414c45580000000000000000000000000000000000000000000000000000000081525060029081620000ab9190620003b9565b506040518060400160405280600e81526020017f416c657820436f696e2076312e3000000000000000000000000000000000000081525060039081620000f29190620003b9565b50600054600460003373ffffffffffffffffffffffffffffffffffffffff1673ffffffffffffffffffffffffffffffffffffffff16815260200190815260200160002081905550620004a0565b600081519050919050565b7f4e487b7100000000000000000000000000000000000000000000000000000000600052604160045260246000fd5b7f4e487b7100000000000000000000000000000000000000000000000000000000600052602260045260246000fd5b60006002820490506001821680620001c157607f821691505b602082108103620001d757620001d662000179565b5b50919050565b60008190508160005260206000209050919050565b60006020601f8301049050919050565b600082821b905092915050565b600060088302620002417fffffffffffffffffffffffffffffffffffffffffffffffffffffffffffffffff8262000202565b6200024d868362000202565b95508019841693508086168417925050509392505050565b6000819050919050565b6000819050919050565b60006200029a620002946200028e8462000265565b6200026f565b62000265565b9050919050565b6000819050919050565b620002b68362000279565b620002ce620002c582620002a1565b8484546200020f565b825550505050565b600090565b620002e5620002d6565b620002f2818484620002ab565b505050565b5b818110156200031a576200030e600082620002db565b600181019050620002f8565b5050565b601f82111562000369576200033381620001dd565b6200033e84620001f2565b810160208510156200034e578190505b620003666200035d85620001f2565b830182620002f7565b50505b505050565b600082821c905092915050565b60006200038e600019846008026200036e565b1980831691505092915050565b6000620003a983836200037b565b9150826002028217905092915050565b620003c4826200013f565b67ffffffffffffffff811115620003e057620003df6200014a565b5b620003ec8254620001a8565b620003f98282856200031e565b600060209050601f8311600181146200043157600084156200041c578287015190505b6200042885826200039b565b86555062000498565b601f1984166200044186620001dd565b60005b828110156200046b5784890151825560018201915060208501945060208101905062000444565b868310156200048b578489015162000487601f8916826200037b565b8355505b6001600288020188555050505b505050505050565b61082180620004b06000396000f3fe608060405234801561001057600080fd5b50600436106100625760003560e01c806306fdde031461006757806318160ddd146100855780635a3b7e42146100a357806370a08231146100c157806395d89b41146100f1578063a9059cbb1461010f575b600080fd5b61006f61013f565b60405161007c919061054a565b60405180910390f35b61008d6101cd565b60405161009a9190610585565b60405180910390f35b6100ab6101d3565b6040516100b8919061054a565b60405180910390f35b6100db60048036038101906100d69190610603565b610261565b6040516100e89190610585565b60405180910390f35b6100f9610279565b604051610106919061054a565b60405180910390f35b6101296004803603810190610124919061065c565b610307565b60405161013691906106b7565b60405180910390f35b6001805461014c90610701565b80601f016020809104026020016040519081016040528092919081815260200182805461017890610701565b80156101c55780601f1061019a576101008083540402835291602001916101c5565b820191906000526020600020905b8154815290600101906020018083116101a857829003601f168201915b505050505081565b60005481565b600380546101e090610701565b80601f016020809104026020016040519081016040528092919081815260200182805461020c90610701565b80156102595780601f1061022e57610100808354040283529160200191610259565b820191906000526020600020905b81548152906001019060200180831161023c57829003601f168201915b505050505081565b60046020528060005260406000206000915090505481565b6002805461028690610701565b80601f01602080910402602001604051908101604052809291908181526020018280546102b290610701565b80156102ff5780601f106102d4576101008083540402835291602001916102ff565b820191906000526020600020905b8154815290600101906020018083116102e257829003601f168201915b505050505081565b60008073ffffffffffffffffffffffffffffffffffffffff168373ffffffffffffffffffffffffffffffffffffffff160361034557600090506104ab565b81600460003373ffffffffffffffffffffffffffffffffffffffff1673ffffffffffffffffffffffffffffffffffffffff16815260200190815260200160002054101561039557600090506104ab565b81600460003373ffffffffffffffffffffffffffffffffffffffff1673ffffffffffffffffffffffffffffffffffffffff16815260200190815260200160002060008282546103e49190610761565b9250508190555081600460008573ffffffffffffffffffffffffffffffffffffffff1673ffffffffffffffffffffffffffffffffffffffff168152602001908152602001600020600082825461043a9190610795565b925050819055508273ffffffffffffffffffffffffffffffffffffffff163373ffffffffffffffffffffffffffffffffffffffff167fddf252ad1be2c89b69c2b068fc378daa952ba7f163c4a11628f55a4df523b3ef8460405161049e9190610585565b60405180910390a3600190505b92915050565b600081519050919050565b600082825260208201905092915050565b60005b838110156104eb5780820151818401526020810190506104d0565b838111156104fa576000848401525b50505050565b6000601f19601f8301169050919050565b600061051c826104b1565b61052681856104bc565b93506105368185602086016104cd565b61053f81610500565b840191505092915050565b600060208201905081810360008301526105648184610511565b905092915050565b6000819050919050565b61057f8161056c565b82525050565b600060208201905061059a6000830184610576565b92915050565b600080fd5b600073ffffffffffffffffffffffffffffffffffffffff82169050919050565b60006105d0826105a5565b9050919050565b6105e0816105c5565b81146105eb57600080fd5b50565b6000813590506105fd816105d7565b92915050565b600060208284031215610619576106186105a0565b5b6000610627848285016105ee565b91505092915050565b6106398161056c565b811461064457600080fd5b50565b60008135905061065681610630565b92915050565b60008060408385031215610673576106726105a0565b5b6000610681858286016105ee565b925050602061069285828601610647565b9150509250929050565b60008115159050919050565b6106b18161069c565b82525050565b60006020820190506106cc60008301846106a8565b92915050565b7f4e487b7100000000000000000000000000000000000000000000000000000000600052602260045260246000fd5b6000600282049050600182168061071957607f821691505b60208210810361072c5761072b6106d2565b5b50919050565b7f4e487b7100000000000000000000000000000000000000000000000000000000600052601160045260246000fd5b600061076c8261056c565b91506107778361056c565b92508282101561078a57610789610732565b5b828203905092915050565b60006107a08261056c565b91506107ab8361056c565b9250827fffffffffffffffffffffffffffffffffffffffffffffffffffffffffffffffff038211156107e0576107df610732565b5b82820190509291505056fea2646970667358221220c1cb396d0032c1c26f78710c5c335a1f43c8a4b1dcb09dcad4424d01543efcff64736f6c634300080f0033",
  "immutableReferences": {},
  "source": "// SPDX-License-Identifier: UNLICENSED\r\npragma solidity ^0.8.15;\r\n\r\ncontract AlexCoin {\r\n    uint256 public totalSupply;\r\n    string public name;\r\n    string public symbol;\r\n    string public standard;\r\n    mapping(address => uint256) public balanceOf;\r\n\r\n    constructor() {\r\n        totalSupply = 86000000000;\r\n        name = \"AlexCoin\";\r\n        symbol = \"ALEX\";\r\n        standard = \"Alex Coin v1.0\";\r\n        balanceOf[msg.sender] = totalSupply;\r\n\r\n    }\r\n    \r\n    function transfer(address _to, uint256 _value) public returns (bool success) {\r\n        if(_to == address(0)) return false;\r\n        if(balanceOf[msg.sender] < _value) return false;\r\n\r\n        balanceOf[msg.sender] -= _value;\r\n        balanceOf[_to] += _value;\r\n        emit Transfer(msg.sender, _to, _value);\r\n        return true;\r\n    }\r\n    event Transfer(address indexed _from, address indexed _to, uint256 _value);\r\n\r\n\r\n    /* \r\n        NOT DONE\r\n    function decimals() public view returns (uint8)\r\n    function transferFrom(address _from, address _to, uint256 _value) public returns (bool success)\r\n    function approve(address _spender, uint256 _value) public returns (bool success)\r\n    function allowance(address _owner, address _spender) public view returns (uint256 remaining)\r\n\r\n    function _transfer(address sender, address recipient,uint256 amount) internal returns (bool success)\r\n    function _mint(address account, uint256 amount) internal returns (bool success)\r\n    function _burn(address account, uint256 amount) internal returns (bool success)\r\n    function _approve(address owner, address spender, uint256 amount) internal returns (bool success)\r\n    function _burnFrom(address account, uint256 amount) internal returns (bool success)\r\n    \r\n    event Transfer(address indexed _from, address indexed _to, uint256 _value)\r\n    event Approval(address indexed _owner, address indexed _spender, uint256 _value)\r\n\r\n        DONE\r\n    function name() public view returns (string)\r\n    function symbol() public view returns (string)\r\n    function totalSupply() public view returns (uint256)\r\n    function balanceOf(address _owner) public view returns (uint256 balance)\r\n    function transfer(address _to, uint256 _value) public returns (bool success)\r\n\r\n    */\r\n\r\n\r\n}",
  "sourcePath": "C:\\Users\\alex\\Desktop\\alexcoin\\contracts\\AlexCoin.sol",
  "compiler": {
    "name": "solc",
    "version": "0.8.15+commit.e14f2714.Emscripten.clang"
  },
  "schemaVersion": "3.4.8",
  "updatedAt": "2022-08-05T12:22:54.870Z",
  "networkType": "ethereum",
  "devdoc": {
    "kind": "dev",
    "methods": {},
    "version": 1
  },
  "userdoc": {
    "kind": "user",
    "methods": {},
    "version": 1
  }
}