{
  "contractName": "AlexCoinSale",
  "abi": [
    {
      "inputs": [
        {
          "internalType": "uint256",
          "name": "_tokenPrice",
          "type": "uint256"
        },
        {
          "internalType": "contract AlexCoin",
          "name": "_coinContract",
          "type": "address"
        }
      ],
      "stateMutability": "nonpayable",
      "type": "constructor"
    },
    {
      "anonymous": false,
      "inputs": [
        {
          "indexed": false,
          "internalType": "address",
          "name": "_buyer",
          "type": "address"
        },
        {
          "indexed": false,
          "internalType": "uint256",
          "name": "_amount",
          "type": "uint256"
        },
        {
          "indexed": false,
          "internalType": "uint256",
          "name": "_price",
          "type": "uint256"
        }
      ],
      "name": "Sell",
      "type": "event"
    },
    {
      "inputs": [],
      "name": "coinContract",
      "outputs": [
        {
          "internalType": "contract AlexCoin",
          "name": "",
          "type": "address"
        }
      ],
      "stateMutability": "view",
      "type": "function",
      "constant": true
    },
    {
      "inputs": [],
      "name": "tokenPrice",
      "outputs": [
        {
          "internalType": "uint256",
          "name": "",
          "type": "uint256"
        }
      ],
      "stateMutability": "view",
      "type": "function",
      "constant": true
    },
    {
      "inputs": [],
      "name": "tokensSold",
      "outputs": [
        {
          "internalType": "uint256",
          "name": "",
          "type": "uint256"
        }
      ],
      "stateMutability": "view",
      "type": "function",
      "constant": true
    },
    {
      "inputs": [
        {
          "internalType": "uint256",
          "name": "_amount",
          "type": "uint256"
        }
      ],
      "name": "buyTokens",
      "outputs": [],
      "stateMutability": "payable",
      "type": "function",
      "payable": true
    }
  ],
  "bytecode": "0x608060405234801561001057600080fd5b50604051610a14380380610a1483398181016040528101906100329190610174565b336000806101000a81548173ffffffffffffffffffffffffffffffffffffffff021916908373ffffffffffffffffffffffffffffffffffffffff1602179055508160018190555080600260006101000a81548173ffffffffffffffffffffffffffffffffffffffff021916908373ffffffffffffffffffffffffffffffffffffffff160217905550600060038190555050506101b4565b600080fd5b6000819050919050565b6100e1816100ce565b81146100ec57600080fd5b50565b6000815190506100fe816100d8565b92915050565b600073ffffffffffffffffffffffffffffffffffffffff82169050919050565b600061012f82610104565b9050919050565b600061014182610124565b9050919050565b61015181610136565b811461015c57600080fd5b50565b60008151905061016e81610148565b92915050565b6000806040838503121561018b5761018a6100c9565b5b6000610199858286016100ef565b92505060206101aa8582860161015f565b9150509250929050565b610851806101c36000396000f3fe60806040526004361061003f5760003560e01c80633610724e14610044578063518ab2a81461006057806372dd52e31461008b5780637ff9b596146100b6575b600080fd5b61005e600480360381019061005991906103b3565b6100e1565b005b34801561006c57600080fd5b50610075610346565b60405161008291906103ef565b60405180910390f35b34801561009757600080fd5b506100a061034c565b6040516100ad9190610489565b60405180910390f35b3480156100c257600080fd5b506100cb610372565b6040516100d891906103ef565b60405180910390f35b600154816100ef91906104d3565b3414610130576040517f08c379a00000000000000000000000000000000000000000000000000000000081526004016101279061058a565b60405180910390fd5b80600260009054906101000a900473ffffffffffffffffffffffffffffffffffffffff1673ffffffffffffffffffffffffffffffffffffffff166370a08231306040518263ffffffff1660e01b815260040161018c91906105cb565b602060405180830381865afa1580156101a9573d6000803e3d6000fd5b505050506040513d601f19601f820116820180604052508101906101cd91906105fb565b101561020e576040517f08c379a000000000000000000000000000000000000000000000000000000000815260040161020590610674565b60405180910390fd5b600260009054906101000a900473ffffffffffffffffffffffffffffffffffffffff1673ffffffffffffffffffffffffffffffffffffffff1663a9059cbb33836040518363ffffffff1660e01b815260040161026b929190610694565b6020604051808303816000875af115801561028a573d6000803e3d6000fd5b505050506040513d601f19601f820116820180604052508101906102ae91906106f5565b6102ed576040517f08c379a00000000000000000000000000000000000000000000000000000000081526004016102e49061076e565b60405180910390fd5b80600360008282546102ff919061078e565b925050819055507fed7a144fad14804d5c249145e3e0e2b63a9eb455b76aee5bc92d711e9bba3e4a338260015460405161033b939291906107e4565b60405180910390a150565b60035481565b600260009054906101000a900473ffffffffffffffffffffffffffffffffffffffff1681565b60015481565b600080fd5b6000819050919050565b6103908161037d565b811461039b57600080fd5b50565b6000813590506103ad81610387565b92915050565b6000602082840312156103c9576103c8610378565b5b60006103d78482850161039e565b91505092915050565b6103e98161037d565b82525050565b600060208201905061040460008301846103e0565b92915050565b600073ffffffffffffffffffffffffffffffffffffffff82169050919050565b6000819050919050565b600061044f61044a6104458461040a565b61042a565b61040a565b9050919050565b600061046182610434565b9050919050565b600061047382610456565b9050919050565b61048381610468565b82525050565b600060208201905061049e600083018461047a565b92915050565b7f4e487b7100000000000000000000000000000000000000000000000000000000600052601160045260246000fd5b60006104de8261037d565b91506104e98361037d565b9250817fffffffffffffffffffffffffffffffffffffffffffffffffffffffffffffffff0483118215151615610522576105216104a4565b5b828202905092915050565b600082825260208201905092915050565b7f6e6f7420636f72726563742076616c75652073656e7400000000000000000000600082015250565b600061057460168361052d565b915061057f8261053e565b602082019050919050565b600060208201905081810360008301526105a381610567565b9050919050565b60006105b58261040a565b9050919050565b6105c5816105aa565b82525050565b60006020820190506105e060008301846105bc565b92915050565b6000815190506105f581610387565b92915050565b60006020828403121561061157610610610378565b5b600061061f848285016105e6565b91505092915050565b7f6e6f7420656e6f75676820746f6b656e73206c65667420666f722073616c6500600082015250565b600061065e601f8361052d565b915061066982610628565b602082019050919050565b6000602082019050818103600083015261068d81610651565b9050919050565b60006040820190506106a960008301856105bc565b6106b660208301846103e0565b9392505050565b60008115159050919050565b6106d2816106bd565b81146106dd57600080fd5b50565b6000815190506106ef816106c9565b92915050565b60006020828403121561070b5761070a610378565b5b6000610719848285016106e0565b91505092915050565b7f5472616e7366657220776173206e6f74207375636365737366756c0000000000600082015250565b6000610758601b8361052d565b915061076382610722565b602082019050919050565b600060208201905081810360008301526107878161074b565b9050919050565b60006107998261037d565b91506107a48361037d565b9250827fffffffffffffffffffffffffffffffffffffffffffffffffffffffffffffffff038211156107d9576107d86104a4565b5b828201905092915050565b60006060820190506107f960008301866105bc565b61080660208301856103e0565b61081360408301846103e0565b94935050505056fea2646970667358221220d176fc333b48763c5f82de5487f29a0e2b90c98e9078cb438eb8cbe6ebca9b4464736f6c634300080f0033",
  "immutableReferences": {},
  "source": "// SPDX-License-Identifier: UNLICENSED\r\npragma solidity ^0.8.15;\r\nimport \"./AlexCoin.sol\";\r\n\r\ncontract AlexCoinSale {\r\n    address admin;\r\n    uint256 public tokenPrice;\r\n    AlexCoin public coinContract;\r\n    uint256 public tokensSold;\r\n\r\n    event Sell(address _buyer, uint256 _amount, uint256 _price);\r\n\r\n    constructor(uint256 _tokenPrice, AlexCoin _coinContract) {\r\n        admin = msg.sender;\r\n        tokenPrice = _tokenPrice;\r\n        coinContract = _coinContract;\r\n        tokensSold = 0;\r\n    }\r\n\r\n    function buyTokens(uint256 _amount) public payable{\r\n        require(msg.value == _amount * tokenPrice, \"not correct value sent\");\r\n        require(coinContract.balanceOf(address(this)) >= _amount, \"not enough tokens left for sale\");\r\n        require(coinContract.transfer(msg.sender, _amount), \"Transfer was not successful\");\r\n        tokensSold += _amount;\r\n        emit Sell(msg.sender, _amount, tokenPrice);\r\n    }\r\n}",
  "sourcePath": "C:\\Users\\alex\\Desktop\\alexcoin\\contracts\\AlexCoinSale.sol",
  "compiler": {
    "name": "solc",
    "version": "0.8.15+commit.e14f2714.Emscripten.clang"
  },
  "schemaVersion": "3.4.8",
  "updatedAt": "2022-08-07T13:46:45.815Z",
  "networkType": "ethereum",
  "devdoc": {
    "kind": "dev",
    "methods": {},
    "version": 1
  },
  "userdoc": {
    "kind": "user",
    "methods": {},
    "version": 1
  }
}