{
  "contractName": "AlexCoinSale",
  "abi": [
    {
      "inputs": [
        {
          "internalType": "uint256",
          "name": "_tokenPrice",
          "type": "uint256"
        },
        {
          "internalType": "contract AlexCoin",
          "name": "_coinContract",
          "type": "address"
        }
      ],
      "stateMutability": "nonpayable",
      "type": "constructor"
    },
    {
      "anonymous": false,
      "inputs": [
        {
          "indexed": false,
          "internalType": "address",
          "name": "_buyer",
          "type": "address"
        },
        {
          "indexed": false,
          "internalType": "uint256",
          "name": "_amount",
          "type": "uint256"
        },
        {
          "indexed": false,
          "internalType": "uint256",
          "name": "_price",
          "type": "uint256"
        }
      ],
      "name": "Sell",
      "type": "event"
    },
    {
      "inputs": [],
      "name": "coinContract",
      "outputs": [
        {
          "internalType": "contract AlexCoin",
          "name": "",
          "type": "address"
        }
      ],
      "stateMutability": "view",
      "type": "function"
    },
    {
      "inputs": [],
      "name": "open",
      "outputs": [
        {
          "internalType": "bool",
          "name": "",
          "type": "bool"
        }
      ],
      "stateMutability": "view",
      "type": "function"
    },
    {
      "inputs": [],
      "name": "tokenPrice",
      "outputs": [
        {
          "internalType": "uint256",
          "name": "",
          "type": "uint256"
        }
      ],
      "stateMutability": "view",
      "type": "function"
    },
    {
      "inputs": [],
      "name": "tokensSold",
      "outputs": [
        {
          "internalType": "uint256",
          "name": "",
          "type": "uint256"
        }
      ],
      "stateMutability": "view",
      "type": "function"
    },
    {
      "inputs": [
        {
          "internalType": "uint256",
          "name": "_amount",
          "type": "uint256"
        }
      ],
      "name": "buyTokens",
      "outputs": [],
      "stateMutability": "payable",
      "type": "function"
    },
    {
      "inputs": [],
      "name": "endSale",
      "outputs": [],
      "stateMutability": "nonpayable",
      "type": "function"
    }
  ],
  "bytecode": "0x60806040523480156200001157600080fd5b5060405162000d7438038062000d748339818101604052810190620000379190620001a3565b336000806101000a81548173ffffffffffffffffffffffffffffffffffffffff021916908373ffffffffffffffffffffffffffffffffffffffff1602179055508160018190555080600260006101000a81548173ffffffffffffffffffffffffffffffffffffffff021916908373ffffffffffffffffffffffffffffffffffffffff16021790555060006003819055506001600460006101000a81548160ff0219169083151502179055505050620001ea565b600080fd5b6000819050919050565b6200010481620000ef565b81146200011057600080fd5b50565b6000815190506200012481620000f9565b92915050565b600073ffffffffffffffffffffffffffffffffffffffff82169050919050565b600062000157826200012a565b9050919050565b60006200016b826200014a565b9050919050565b6200017d816200015e565b81146200018957600080fd5b50565b6000815190506200019d8162000172565b92915050565b60008060408385031215620001bd57620001bc620000ea565b5b6000620001cd8582860162000113565b9250506020620001e0858286016200018c565b9150509250929050565b610b7a80620001fa6000396000f3fe6080604052600436106100555760003560e01c80633610724e1461005a578063380d831b14610076578063518ab2a81461008d57806372dd52e3146100b85780637ff9b596146100e3578063fcfff16f1461010e575b600080fd5b610074600480360381019061006f9190610646565b610139565b005b34801561008257600080fd5b5061008b6103ed565b005b34801561009957600080fd5b506100a26105c6565b6040516100af9190610682565b60405180910390f35b3480156100c457600080fd5b506100cd6105cc565b6040516100da919061071c565b60405180910390f35b3480156100ef57600080fd5b506100f86105f2565b6040516101059190610682565b60405180910390f35b34801561011a57600080fd5b506101236105f8565b6040516101309190610752565b60405180910390f35b600460009054906101000a900460ff16610188576040517f08c379a000000000000000000000000000000000000000000000000000000000815260040161017f906107ca565b60405180910390fd5b600154816101969190610819565b34146101d7576040517f08c379a00000000000000000000000000000000000000000000000000000000081526004016101ce906108bf565b60405180910390fd5b80600260009054906101000a900473ffffffffffffffffffffffffffffffffffffffff1673ffffffffffffffffffffffffffffffffffffffff166370a08231306040518263ffffffff1660e01b81526004016102339190610900565b602060405180830381865afa158015610250573d6000803e3d6000fd5b505050506040513d601f19601f820116820180604052508101906102749190610930565b10156102b5576040517f08c379a00000000000000000000000000000000000000000000000000000000081526004016102ac906109a9565b60405180910390fd5b600260009054906101000a900473ffffffffffffffffffffffffffffffffffffffff1673ffffffffffffffffffffffffffffffffffffffff1663a9059cbb33836040518363ffffffff1660e01b81526004016103129291906109c9565b6020604051808303816000875af1158015610331573d6000803e3d6000fd5b505050506040513d601f19601f820116820180604052508101906103559190610a1e565b610394576040517f08c379a000000000000000000000000000000000000000000000000000000000815260040161038b90610a97565b60405180910390fd5b80600360008282546103a69190610ab7565b925050819055507fed7a144fad14804d5c249145e3e0e2b63a9eb455b76aee5bc92d711e9bba3e4a33826001546040516103e293929190610b0d565b60405180910390a150565b60008054906101000a900473ffffffffffffffffffffffffffffffffffffffff1673ffffffffffffffffffffffffffffffffffffffff163373ffffffffffffffffffffffffffffffffffffffff161461044557600080fd5b600260009054906101000a900473ffffffffffffffffffffffffffffffffffffffff1673ffffffffffffffffffffffffffffffffffffffff1663a9059cbb60008054906101000a900473ffffffffffffffffffffffffffffffffffffffff16600260009054906101000a900473ffffffffffffffffffffffffffffffffffffffff1673ffffffffffffffffffffffffffffffffffffffff166370a08231306040518263ffffffff1660e01b81526004016104ff9190610900565b602060405180830381865afa15801561051c573d6000803e3d6000fd5b505050506040513d601f19601f820116820180604052508101906105409190610930565b6040518363ffffffff1660e01b815260040161055d9291906109c9565b6020604051808303816000875af115801561057c573d6000803e3d6000fd5b505050506040513d601f19601f820116820180604052508101906105a09190610a1e565b6105a957600080fd5b6000600460006101000a81548160ff021916908315150217905550565b60035481565b600260009054906101000a900473ffffffffffffffffffffffffffffffffffffffff1681565b60015481565b600460009054906101000a900460ff1681565b600080fd5b6000819050919050565b61062381610610565b811461062e57600080fd5b50565b6000813590506106408161061a565b92915050565b60006020828403121561065c5761065b61060b565b5b600061066a84828501610631565b91505092915050565b61067c81610610565b82525050565b60006020820190506106976000830184610673565b92915050565b600073ffffffffffffffffffffffffffffffffffffffff82169050919050565b6000819050919050565b60006106e26106dd6106d88461069d565b6106bd565b61069d565b9050919050565b60006106f4826106c7565b9050919050565b6000610706826106e9565b9050919050565b610716816106fb565b82525050565b6000602082019050610731600083018461070d565b92915050565b60008115159050919050565b61074c81610737565b82525050565b60006020820190506107676000830184610743565b92915050565b600082825260208201905092915050565b7f53616c65206973206e6f74206f70656e20616e796d6f72650000000000000000600082015250565b60006107b460188361076d565b91506107bf8261077e565b602082019050919050565b600060208201905081810360008301526107e3816107a7565b9050919050565b7f4e487b7100000000000000000000000000000000000000000000000000000000600052601160045260246000fd5b600061082482610610565b915061082f83610610565b9250817fffffffffffffffffffffffffffffffffffffffffffffffffffffffffffffffff0483118215151615610868576108676107ea565b5b828202905092915050565b7f6e6f7420636f72726563742076616c75652073656e7400000000000000000000600082015250565b60006108a960168361076d565b91506108b482610873565b602082019050919050565b600060208201905081810360008301526108d88161089c565b9050919050565b60006108ea8261069d565b9050919050565b6108fa816108df565b82525050565b600060208201905061091560008301846108f1565b92915050565b60008151905061092a8161061a565b92915050565b6000602082840312156109465761094561060b565b5b60006109548482850161091b565b91505092915050565b7f6e6f7420656e6f75676820746f6b656e73206c65667420666f722073616c6500600082015250565b6000610993601f8361076d565b915061099e8261095d565b602082019050919050565b600060208201905081810360008301526109c281610986565b9050919050565b60006040820190506109de60008301856108f1565b6109eb6020830184610673565b9392505050565b6109fb81610737565b8114610a0657600080fd5b50565b600081519050610a18816109f2565b92915050565b600060208284031215610a3457610a3361060b565b5b6000610a4284828501610a09565b91505092915050565b7f5472616e7366657220776173206e6f74207375636365737366756c0000000000600082015250565b6000610a81601b8361076d565b9150610a8c82610a4b565b602082019050919050565b60006020820190508181036000830152610ab081610a74565b9050919050565b6000610ac282610610565b9150610acd83610610565b9250827fffffffffffffffffffffffffffffffffffffffffffffffffffffffffffffffff03821115610b0257610b016107ea565b5b828201905092915050565b6000606082019050610b2260008301866108f1565b610b2f6020830185610673565b610b3c6040830184610673565b94935050505056fea26469706673582212208e6ee350eeec3c791716ee9cfa1777980d11cb865f057fdf955debb9d9cfc87e64736f6c634300080f0033",
  "immutableReferences": {},
  "source": "// SPDX-License-Identifier: UNLICENSED\r\npragma solidity ^0.8.15;\r\nimport \"./AlexCoin.sol\";\r\n\r\ncontract AlexCoinSale {\r\n    address admin;\r\n    uint256 public tokenPrice;\r\n    AlexCoin public coinContract;\r\n    uint256 public tokensSold;\r\n    bool public open;\r\n\r\n    event Sell(address _buyer, uint256 _amount, uint256 _price);\r\n\r\n    constructor(uint256 _tokenPrice, AlexCoin _coinContract) {\r\n        admin = msg.sender;\r\n        tokenPrice = _tokenPrice;\r\n        coinContract = _coinContract;\r\n        tokensSold = 0;\r\n        open = true;\r\n    }\r\n\r\n    function buyTokens(uint256 _amount) public payable{\r\n        require(open, \"Sale is not open anymore\");\r\n        require(msg.value == _amount * tokenPrice, \"not correct value sent\");\r\n        require((coinContract.balanceOf(address(this))) >= _amount, \"not enough tokens left for sale\");\r\n        require(coinContract.transfer(msg.sender, _amount), \"Transfer was not successful\");\r\n        tokensSold += _amount;\r\n        emit Sell(msg.sender, _amount, tokenPrice);\r\n    }\r\n\r\n    function endSale() public {\r\n        require(msg.sender == admin);\r\n        require(coinContract.transfer(admin, coinContract.balanceOf(address(this))));\r\n        open = false;\r\n    }\r\n}",
  "sourcePath": "C:\\Users\\alex\\Desktop\\alexcoin\\contracts\\AlexCoinSale.sol",
  "compiler": {
    "name": "solc",
    "version": "0.8.15+commit.e14f2714.Emscripten.clang"
  },
  "schemaVersion": "3.4.8",
  "updatedAt": "2022-08-08T17:23:25.085Z",
  "devdoc": {
    "kind": "dev",
    "methods": {},
    "version": 1
  },
  "userdoc": {
    "kind": "user",
    "methods": {},
    "version": 1
  }
}