{
  "contractName": "AlexCoin",
  "abi": [
    {
      "inputs": [],
      "stateMutability": "nonpayable",
      "type": "constructor"
    },
    {
      "inputs": [],
      "name": "totalSupply",
      "outputs": [
        {
          "internalType": "uint256",
          "name": "",
          "type": "uint256"
        }
      ],
      "stateMutability": "view",
      "type": "function",
      "constant": true
    }
  ],
  "bytecode": "0x608060405234801561001057600080fd5b50641405ffdc0060008190555060b38061002b6000396000f3fe6080604052348015600f57600080fd5b506004361060285760003560e01c806318160ddd14602d575b600080fd5b60336047565b604051603e91906064565b60405180910390f35b60005481565b6000819050919050565b605e81604d565b82525050565b6000602082019050607760008301846057565b9291505056fea26469706673582212200fe88ca0854eca943b857bb74fbcbd4e57b8df5808d7803435b5844551aa318764736f6c634300080f0033",
  "immutableReferences": {},
  "source": "// SPDX-License-Identifier: UNLICENSED\r\npragma solidity ^0.8.15;\r\n\r\ncontract AlexCoin {\r\n    uint256 public totalSupply;\r\n\r\n    constructor() {\r\n        totalSupply = 86000000000;\r\n    }\r\n\r\n    /* function name() public view returns (string)\r\n    function symbol() public view returns (string)\r\n    function decimals() public view returns (uint8)\r\n    function totalSupply() public view returns (uint256)\r\n    function balanceOf(address _owner) public view returns (uint256 balance)\r\n    function transfer(address _to, uint256 _value) public returns (bool success)\r\n    function transferFrom(address _from, address _to, uint256 _value) public returns (bool success)\r\n    function approve(address _spender, uint256 _value) public returns (bool success)\r\n    function allowance(address _owner, address _spender) public view returns (uint256 remaining)\r\n\r\n    function _transfer(address sender, address recipient,uint256 amount) internal returns (bool success)\r\n    function _mint(address account, uint256 amount) internal returns (bool success)\r\n    function _burn(address account, uint256 amount) internal returns (bool success)\r\n    function _approve(address owner, address spender, uint256 amount) internal returns (bool success)\r\n    function _burnFrom(address account, uint256 amount) internal returns (bool success)\r\n    \r\n    event Transfer(address indexed _from, address indexed _to, uint256 _value)\r\n    event Approval(address indexed _owner, address indexed _spender, uint256 _value) */\r\n\r\n\r\n}",
  "sourcePath": "C:\\Users\\alex\\Desktop\\alexcoin\\contracts\\AlexCoin.sol",
  "compiler": {
    "name": "solc",
    "version": "0.8.15+commit.e14f2714.Emscripten.clang"
  },
  "schemaVersion": "3.4.8",
  "updatedAt": "2022-08-04T22:21:43.783Z",
  "networkType": "ethereum",
  "devdoc": {
    "kind": "dev",
    "methods": {},
    "version": 1
  },
  "userdoc": {
    "kind": "user",
    "methods": {},
    "version": 1
  }
}